S00C00006D61696E2E7372656373
S11300000C94A7000C94C4000C94C4000C94C40079
S11300100C94C4000C94C4000C94C4000C94C4004C
S11300200C94C4000C94C4000C94C4000C94C4003C
S11300300C94C4000C94C4000C94C4000C94C4002C
S11300400C94C4000C94C4000C94C4000C94C4001C
S11300500C94C40000407A10F35A00A0724E1809A0
S11300600010A5D4E80000E87648170000E40B541B
S1130070020000CA9A3B000000E1F50500008096EA
S11300809800000040420F000000A086010000001C
S1130090102700000000E8030000000064000000D6
S11300A000000A00000000000100000000002C769F
S11300B0D888DC674F0823DFC1DFAE59E1B1B796BA
S11300C0E5E3E453C63AE651997696E8E6C2842617
S11300D0EB898C9B62ED407C6FFCEFBC9C9F40F2F3
S11300E0BAA56FA5F490055A2AF75C936B6CF9676F
S11300F06DC11BFCE0E40D47FEF520E6B500D0ED34
S1130100902E0300943577050080841E080000209B
S11301104E0A000000C80C333333330F986E128339
S11301201141EF8D2114893BE65516CFFEE6DB180D
S1130130D1844B381BF77C1D901DA4BBE4242032D2
S113014084725E228100C9F124ECA1E53D271124CB
S11301501FBECFE5D8E0DEBFCDBF11E0A0E6B0E022
S1130160E6E3F8E102C005900D92A237B107D9F792
S113017021E0A2E7B1E001C01D92A938B207E1F77E
S11301800E941A060C94190C0C940000683008F0B4
S113019081C0843008F07EC0813031F1813038F084
S11301A0823009F43EC0833009F074C057C0413036
S11301B069F42AB381E090E0AC0102C0440F551FFA
S11301C06A95E2F7BA01622B6ABB08952AB381E00B
S11301D090E0AC0102C0440F551F6A95E2F7BA01E2
S11301E0609562236ABB0895413069F427B381E0C6
S11301F090E0AC0102C0440F551F6A95E2F7BA01C2
S1130200622B67BB089527B381E090E0AC0102C084
S1130210440F551F6A95E2F7BA016095622367BBE4
S11302200895413069F424B381E090E0AC0102C048
S1130230440F551F6A95E2F7BA01622B64BB089517
S113024024B381E090E0AC0102C0440F551F6A95CD
S1130250E2F7BA016095622364BB0895413069F402
S113026021B381E090E0AC0102C0440F551F6A95B0
S1130270E2F7BA01622B61BB089521B381E090E0FB
S1130280AC0102C0440F551F6A95E2F7BA016095AC
S1130290622361BB0895683008F081C0843008F09F
S11302A07EC0813031F1813038F0823009F43EC0B3
S11302B0833009F074C057C0413069F42BB381E036
S11302C090E0AC0102C0440F551F6A95E2F7BA01F1
S11302D0622B6BBB08952BB381E090E0AC0102C0AC
S11302E0440F551F6A95E2F7BA01609562236BBB10
S11302F00895413069F428B381E090E0AC0102C074
S1130300440F551F6A95E2F7BA01622B68BB089542
S113031028B381E090E0AC0102C0440F551F6A95F8
S1130320E2F7BA016095622368BB0895413069F42D
S113033025B381E090E0AC0102C0440F551F6A95DB
S1130340E2F7BA01622B65BB089525B381E090E022
S1130350AC0102C0440F551F6A95E2F7BA016095DB
S1130360622365BB0895413069F422B381E090E0D3
S1130370AC0102C0440F551F6A95E2F7BA01622B23
S113038062BB089522B381E090E0AC0102C0440F47
S1130390551F6A95E2F7BA016095622362BB08951E
S11303A0683008F040C0843008F03FC08130A1F0CC
S11303B0813028F08230E9F08330C9F527C089B351
S11303C090E09C0102C0359527956A95E2F781E09B
S11303D020FD2EC080E0089586B390E09C0102C009
S11303E0359527956A95E2F781E020FD21C080E0EC
S11303F0089583B390E09C0102C0359527956A95D2
S1130400E2F781E020FD14C080E0089580B390E01D
S11304109C0102C0359527956A95E2F781E020FD9D
S113042007C080E0089580E0089580E0089580E0AA
S11304300895843080F4813049F0813028F082308E
S113044039F0833041F406C06ABB089567BB089550
S113045064BB089561BB0895843080F4813049F011
S1130460813028F0823039F0833041F406C06BBB10
S1130470089568BB089565BB089562BB08958430F0
S113048088F4813049F0813028F0823039F08330AB
S113049059F406C089B3089586B3089583B30895C3
S11304A080B3089580E0089580E008958A988B9A37
S11304B0939808950F931F938299FECF88E100E0EB
S11304C010E09801939A0000000F111F221F331FA0
S11304D0829B04C00F5F1F4F2F4F3F4F9398000024
S11304E0815081F7939A00009398000027FD3F6F95
S11304F0602F712F822F932F1F910F9108950F93C7
S11305001F930E945A02AB01BC0180917201909129
S11305107301A0917401B09175018A019B01081BBC
S1130520190B2A0B3B0BC901B8010E94C408209186
S113053060003091610040916200509163000E941C
S11305402108462F572F682F792FCB01BA011F910D
S11305500F9108950E945A02DC01CB01809372012D
S113056090937301A0937401B09375010895DC0115
S1130570CB018093600090936100A0936200B093DC
S1130580630008950F931F93CF93DF9310E000E06F
S113059081E0612F41E00E94C60081E0612F41E0CB
S11305A00E944B01C02FDC2FDC5F81E06D2F0E9485
S11305B0D001813009F059C087E893E10197F1F740
S11305C000C0000081E06D2F0E94D0018130D1F382
S11305D0CF5F110F110F8C2F810F883081F189307B
S11305E080F4843021F1853038F48230C1F18330D5
S11305F0E0F48130A9F517C08630E9F08730E8F4DB
S113060018C08C3021F18D3028F48A30E1F08B3021
S1130610E0F417C08E30E9F08E3010F18F30D9F04D
S11306208031F1F41AC087E01BC089E019C085E26B
S113063017C084E015C085E013C086E011C08AE2CB
S11306400FC081E00DC082E00BC083E009C08DE2E1
S113065007C080E005C08DE303C08BE201C088E0E1
S1130660DF91CF911F910F910895CF5FC43009F0AE
S11306709ACF81E0612F402F0E94C60081E0612F54
S1130680402F0E944B0181EE94E00197F1F700C0E6
S113069000001F5F143008F47BCF102F79CF1F9315
S11306A0CF93DF93182F82E060E040E00E944B017B
S11306B089EF90E00197F1F700C0000082E061E06B
S11306C041E00E944B0189EF90E00197F1F700C0EF
S11306D00000C12FD0E0AE01407150705595479590
S11306E055954795559547955595479580E063E011
S11306F00E944B01AE014072507055954795559537
S1130700479555954795559547955595479580E057
S113071064E00E944B01AE0140745070042E452FDA
S1130720000C441F550B000C441F551F80E065E06E
S11307300E944B01412F441F4427441F80E066E080
S11307400E944B0189EF90E00197F1F700C000008F
S113075082E061E040E00E944B0189EF90E0019764
S1130760F1F700C0000082E061E041E00E944B012B
S113077089EF90E00197F1F700C00000412F41702C
S113078080E063E00E944B01AE01427050705595C9
S1130790479580E064E00E944B01AE0144705070C4
S11307A0559547955595479580E065E00E944B0126
S11307B0C870D070AE015595479555954795559598
S11307C0479580E066E00E944B0189EF90E0019735
S11307D0F1F700C0000082E061E040E00E944B01BC
S11307E089EF90E00197F1F700C00000DF91CF910D
S11307F01F91089582E060E041E00E94C60082E01B
S113080061E041E00E94C60087E893E10197F1F7B7
S113081000C0000080E063E041E00E94C60080E088
S113082064E041E00E94C60080E065E041E00E948F
S1130830C60080E066E041E00E94C60083E30E94B7
S11308404F0382E30E944F0388E20E944F038CE02F
S11308500E944F0381E00E944F0308951F93CF939A
S1130860DF93182F82E060E041E00E944B0189EFA2
S113087090E00197F1F700C0000082E061E041E000
S11308800E944B0189EF90E00197F1F700C000004E
S1130890C12FD0E0AE0140715070559547955595E4
S11308A04795559547955595479580E063E00E9497
S11308B04B01AE014072507055954795559547953B
S11308C055954795559547955595479580E064E02E
S11308D00E944B01AE0140745070042E452F000C51
S11308E0441F550B000C441F551F80E065E00E9417
S11308F04B01412F441F4427441F80E066E00E94BF
S11309004B0189EF90E00197F1F700C0000082E00D
S113091061E040E00E944B0189EF90E00197F1F71C
S113092000C0000082E061E041E00E944B0189EFD9
S113093090E00197F1F700C00000412F417080E082
S113094063E00E944B01AE0142705070559547958B
S113095080E064E00E944B01AE01447050705595F4
S113096047955595479580E065E00E944B01C87016
S1130970D070AE0155954795559547955595479532
S113098080E066E00E944B0189EF90E00197F1F767
S113099000C0000082E061E040E00E944B0189EF6A
S11309A090E00197F1F700C00000DF91CF911F9113
S11309B008950F931F93CF938C01FC0180818823AA
S11309C051F0C0E00E942E04CF5FF801EC0FF11D3E
S11309D080818823B9F7CF911F910F9108958130B9
S11309E039F0813070F0823031F0833059F406C030
S11309F0962F905C07C0962F905F04C0962F905B53
S1130A0001C0962F892F80680E944F030895CF93C9
S1130A10DF93EA010E94EF04CE010E94D904DF9122
S1130A20CF910895CF93DF93CDB7DEB760970FB61C
S1130A30F894DEBF0FBECDBFBE016F5F7F4F4AE0AB
S1130A4050E00E947009CE0101960E94D90460967C
S1130A500FB6F894DEBF0FBECDBFDF91CF910895DE
S1130A6081E00E944F030895CF92DF92EF92FF92AC
S1130A700F931F930E947F026B017C0160E080E072
S1130A800E94EF0485E690E00E94D9040FE711E08C
S1130A9022E046E0C701B6010E945009C8010E9445
S1130AA0D9048DE690E00E94D9040E94C2022FEF7F
S1130AB033ED90E3215030409040E1F700C0000056
S1130AC08130C1F6C701B6011F910F91FF90EF90DD
S1130AD0DF90CF900895CF9380917B01813089F48A
S1130AE00E94300541E750E065E080E00E94070580
S1130AF02FEF37EA81E6215030408040E1F700C013
S1130B0000000E9430058BE790E00E94D90460E069
S1130B1081E00E94EF04C0E00E94C2029FEF24E340
S1130B203CE0915020403040E1F700C0000090913B
S1130B3064009C130FC08D3369F00E94C2029FEFC2
S1130B4024E33CE0915020403040E1F700C0000035
S1130B508D3399F7EC2FF0E0E358FE4F80838AE25F
S1130B600E942E04CF5F809164008C17A8F681E068
S1130B70CF910895CF930E9430058BE890E00E94B6
S1130B80D9044CE950E060E081E00E940705C0E030
S1130B900E94C2022FEF34E39CE021503040904089
S1130BA0E1F700C00000909164009C130FC08D33E6
S1130BB069F00E94C2022FEF34E39CE021503040E0
S1130BC09040E1F700C000008D3399F7EC2FF0E07E
S1130BD0E258FE4F80838AE20E942E04CF5F809108
S1130BE064008C17A8F6CF91089510927B01209190
S1130BF064002223E9F090917E0180917D01981791
S1130C0051F004C091918D91981769F081E080931F
S1130C107B0180E00895EFE7F1E0AEE7B1E0215019
S1130C2030E021583E4FE217F30761F782E0089560
S1130C3082E008950E94FA030E94560206E711E03A
S1130C406894FF24F1F86894EE24E2F80F2EF3E0A0
S1130C50CF2EF02D0F2EF5E0DF2EF02D80917C01AC
S1130C608230E1F028F4882359F0813071F0F8CF14
S1130C70843009F486C0C8F1853009F4C0C1F0CFCE
S1130C800E946B0580937C01E9CF0E94BA050E9403
S1130C90F50580937C010E943005E0CF10927A0123
S1130CA088EA90E00E94D9044AEB50E060E081E0D9
S1130CB00E94070580917A018150833020F00E94C0
S1130CC0C20280937A0180917A01813019F4D09222
S1130CD07C01C4CF823019F4C0927C01BFCF833031
S1130CE009F0BCCFE0927C01B9CF0E94300581ECC1
S1130CF090E00E94D9044AEC50E060E081E00E9458
S1130D0007050E94C2029FEF980F923030F00E94B4
S1130D10C2029FEF980F9230D0F78130B1F40E9455
S1130D2030058AED90E00E94D90449EE50E060E07D
S1130D3081E00E9407052FEF8DE399E42150804064
S1130D409040E1F700C0000017C08230A9F40E946F
S1130D50300588EF90E00E94D90447E051E060E05C
S1130D6081E00E940705EFEFFDE329E4E150F04044
S1130D702040E1F700C00000F0927C010E943005A1
S1130D806DCF0E94300586E191E00E94D90442EDC6
S1130D9050E060E081E00E9407050E94C202C82F73
S1130DA0D0E0CE0101970297C0F737C10E94C2027A
S1130DB090E09C012150310922303105B8F781308F
S1130DC0910599F50E9434050E9493084B015C013A
S1130DD0880C991CAA1CBB1CDC01CB01880D991D35
S1130DE0AA1DBB1DAC01BD01440F551F661F771F13
S1130DF0440F551F661F771F840F951FA61FB71F2B
S1130E004091760150917701609178017091790158
S1130E10840F951FA61FB71F8093760190937701C7
S1130E20A0937801B0937901FFC0029709F0FCC048
S1130E300E9434050E949308DC01CB01880F991F9E
S1130E40AA1FBB1F880F991FAA1FBB1FAC01BD019E
S1130E50440F551F661F771F440F551F661F771FCA
S1130E60840F951FA61FB71F4091760150917701FB
S1130E706091780170917901840F951FA61FB71FA7
S1130E808093760190937701A0937801B0937901D0
S1130E90CBC0229709F0C8C080E291E00E94D90437
S1130EA04AE251E060E081E00E9407050E94C2022C
S1130EB090E09C012150310922303105B8F781308E
S1130EC0910569F50E9434050E949308DC01CB0169
S1130ED0880F991FAA1FBB1FAC01BD01440F551FEA
S1130EE0661F771F440F551F661F771F840F951FBA
S1130EF0A61FB71F40917601509177016091780148
S1130F0070917901840F951FA61FB71F80937601F6
S1130F1090937701A0937801B093790185C00297EB
S1130F2009F082C00E9434050E9493084B015C01C1
S1130F30880C991CAA1CBB1CDC01CB01880D991DD3
S1130F40AA1DBB1DAC01BD01440F551F661F771FB1
S1130F50440F551F661F771F840F951FA61FB71FC9
S1130F60880F991FAA1FBB1F4091760150917701EA
S1130F706091780170917901840F951FA61FB71FA6
S1130F808093760190937701A0937801B0937901CF
S1130F904BC00E94C20290E09C01215031092230D2
S1130FA03105B8F78130910519F4E0927C0124C031
S1130FB0029711F50E94300585E391E00E94D9045F
S1130FC060E081E00E94EF04F801808191810E9439
S1130FD01205FFEF25EE8AEAF15020408040E1F748
S1130FE000C00000F0927C0110927601109277010B
S1130FF010927801109279010E9430052FCE109240
S11310007C012CCE83E491E00E94D9044DE451E0AC
S113101060E081E00E940705C9CE0E943005C1301E
S1131020D10509F036CFEECF0E94300588E591E076
S11310300E94D90445E651E060E081E00E94070582
S1131040A8CF0E9435080C9416090E940F0958F085
S11310500E94080940F029F45F3F29F00C94FF082E
S113106051110C944A090C9405090E94270968F34C
S11310709923B1F3552391F3951B550BBB27AA274D
S113108062177307840738F09F5F5F4F220F331F87
S1131090441FAA1FA9F335D00E2E3AF0E0E832D04F
S11310A091505040E695001CCAF72BD0FE2F29D052
S11310B0660F771F881FBB1F261737074807AB0724
S11310C0B0E809F0BB0B802DBF01FF2793585F4F99
S11310D03AF09E3F510578F00C94FF080C944A09AD
S11310E05F3FE4F3983ED4F3869577956795B7957B
S11310F0F7959F5FC9F7880F911D9695879597F986
S11311000895E1E0660F771F881FBB1F62177307FE
S11311108407BA0720F0621B730B840BBA0BEE1F13
S113112088F7E09508950E942F0988F09F5798F05A
S1131130B92F9927B751B0F0E1F0660F771F881FD8
S1131140991F1AF0BA95C9F714C0B13091F00E94F2
S11311504909B1E008950C944909672F782F88272D
S1131160B85F39F0B93FCCF3869577956795B39519
S1131170D9F73EF490958095709561957F4F8F4F88
S11311809F4F0895E89409C097FB3EF4909580958D
S1131190709561957F4F8F4F9F4F9923A9F0F92F39
S11311A096E9BB279395F695879577956795B795B7
S11311B0F111F8CFFAF4BB0F11F460FF1BC06F5F9D
S11311C07F4F8F4F9F4F16C0882311F096E911C0AF
S11311D0772321F09EE8872F762F05C0662371F0D0
S11311E096E8862F70E060E02AF09A95660F771FE4
S11311F0881FDAF7880F9695879597F9089597F9D8
S11312009F6780E870E060E008959FEF80EC0895A8
S113121000240A94161617061806090608950024D1
S11312200A9412161306140605060895092E03944B
S1131230000C11F4882352F0BB0F40F4BF2B11F4BF
S113124060FF04C06F5F7F4F8F4F9F4F089557FD1E
S11312509058440F551F59F05F3F71F04795880F20
S113126097FB991F61F09F3F79F0879508951216B7
S113127013061406551FF2CF4695F1DF08C0161663
S113128017061806991FF1CF869571056105089414
S11312900895E894BB2766277727CB0197F908952B
S11312A0EF920F931F93CF93DF93E80147FD02C0A2
S11312B034E001C034E1042E000C550B57FF03C089
S11312C0519541955109E32E022F242FAE010E941E
S11312D0A009CE01DF91CF911F910F91EF90089556
S11312E04532510520F4423010F00C947B09FB0187
S11312F01082CB010895BB274A3031F4992322F49C
S1131300BDE2909581959F4F0C948709BB27FB0103
S11313105527AA27880F991FAA1FA41710F0A41BEA
S113132083955051B9F7A05DAA3308F0A95DA19344
S1131330009779F7B111B1931192CB010C94D20BB0
S1131340A9E0B0E0E6EAF9E00C94E80B6A01122F98
S1131350B02E2BE3201720F0FF24F394F00E02C0EC
S11313602CE3F22E0F2D27E0AE014F5F5F4F0E945A
S1131370FA0ABC014981842F8970813031F0E1FC83
S113138006C0E0FE06C090E205C09DE203C09BE2F9
S113139001C090E05E2D507143FF3CC0911102C02A
S11313A083E001C084E0811718F4212F281B01C0B9
S11313B020E051110BC0F601822F30E2882319F08E
S11313C031938150FBCFC20ED11C20E0992329F028
S11313D0D6019C93F60131966F01C6010396E2FE95
S11313E00AC03EE4D6013C9341E411964C93119714
S11313F012963C9306C03EE6F601308341E64183F3
S11314003283FC01322F40E2332309F442C041937A
S11314103150FACF42FF44C0911102C083E001C0B1
S113142084E0811718F4212F281B01C020E05111FA
S11314300BC0F601822F30E2882319F031938150DA
S1131440FBCFC20ED11C20E0992329F0D6019C9336
S1131450F60131966F01C6010396E2FE0BC039E432
S1131460D6013C933EE411963C93119736E41296D0
S11314703C9307C039E6F60130833EE6318336E615
S11314803283FC01322F40E2332319F0419331506F
S1131490FBCFFC01E20FF11D10828EEF9FEFA6C07F
S11314A021E030E0911102C020E030E0161617066A
S11314B01CF4FB01319602C0E1E0F0E02E0F3F1F67
S11314C0BB2021F0EB2DF0E0319602C0E0E0F0E02B
S11314D02E0F3F1FE12FF0E02E173F071CF4121BC5
S11314E0212F01C020E08E2D887159F4F601822F3E
S11314F030E2882319F031938150FBCFC20ED11C06
S113150020E0992329F0D6019C93F60131966F01CE
S113151051110BC0F601822F90E3882319F09193A7
S11315208150FBCFC20ED11C20E00F2D060F9A81F3
S1131530342F307144FF03C0913309F40150101665
S113154024F4093018F008E001C001E0AB0177FF92
S113155002C040E050E0FB01E41BF50BA1E0B0E069
S1131560AC0FBD1FEA0FFB1F8EE2A82E4B01801AA1
S113157091080B2D10E01195019511094F3FBFEF14
S11315805B0721F4D601AC9211966D0164177507BF
S11315902CF08416950614F4818101C080E3415037
S11315A051093196D60111967D014017510724F057
S11315B0D6018C936701E2CF6417750739F496332B
S11315C020F4953319F4311101C081E3F6018083CD
S11315D0F701822F90E2882319F091938150FBCF79
S11315E0F701E20FF11D108280E090E02996ECE013
S11315F00C94040C283008F027E03327DA01990F03
S1131600311D87FD916000966105710539F43260E2
S11316102E5F3D9330E32A95E1F708959F3F30F024
S113162080387105610509F03C5F3C5F3D93913062
S113163008F08068911DDF93CF931F930F93FF925F
S1131640EF92192F987F9695E92F96959695E90F25
S1131650FF27E255FF4F99273327EE24FF24A701E4
S1131660E70105900894079428F4360FE71EF81E46
S1131670491F511D660F771F881F991F0694A1F7F4
S11316800590079428F4E70EF81E491F561FC11D44
S1131690770F881F991F661F0694A1F7059007947A
S11316A028F4F80E491F561FC71FD11D880F991F14
S11316B0661F771F0694A1F70590079420F4490F3D
S11316C0561FC71FD81F990F661F771F881F0694C0
S11316D0A9F784911095177041F0D695C795579541
S11316E04795F794E7941A95C1F7E4E5F0E0689418
S11316F01590159135916591959105907FE27395BB
S1131700E118F10A430B560BC90BD009C0F7E10CE1
S1131710F11E431F561FC91FD01D7EF4703311F4F0
S11317208A95E6CFE894015030F0080F0AF40027B8
S1131730021708F4202F2395022F7A3328F079E337
S11317407D932A95E9F710C07D932A9589F606942E
S113175097956795379517951794E118F10A430BF8
S1131760560BC90BD00998F023957E9173957A3363
S113177008F070E37C932013B8F77E9170617D9339
S113178030F0839571E37D9370E32A95E1F711249A
S1131790EF90FF900F911F91CF91DF91992787FDD3
S11317A090950895DC01FC01672F71917723E1F78F
S11317B0329704C07C916D9370836291AE17BF071A
S11317C0C8F308952F923F924F925F926F927F9247
S11317D08F929F92AF92BF92CF92DF92EF92FF923D
S11317E00F931F93CF93DF93CDB7DEB7CA1BDB0BE9
S11317F00FB6F894DEBF0FBECDBF09942A8839888E
S113180048885F846E847D848C849B84AA84B98494
S1131810C884DF80EE80FD800C811B81AA81B981A0
S1131820CE0FD11D0FB6F894DEBF0FBECDBFED01B4
S10918300895F894FFCFB7
S11318360000803F015765696768743A0020476D68
S113184600556E6D61746368656400506C7A20653A
S11318566E74657220706173733A00506C7A2072EC
S1131866652D656E746572207468650073616D65B7
S113187620706173733A200020312D5265736574AC
S113188620322D5072696365730020332D62757999
S11318960053656C6563743A2000312D4672756990
S11318A6747320322D466F6F6400204170706C652E
S11318B67320313520656770002042616E616E6168
S11318C6203230206567700020506F7461746F2079
S11318D63130206567700020436172726F74203363
S11318E630206567700020312D4672756974730067
S11318F620312D506F7461746F0020322D43617254
S1131906726F74730020546F74616C205072696333
S1131916653D0020312D4170706C65730020322DB9
S113192642616E6E616E610020312D4164642069EE
S113193674656D730020322D4765742062696C6C82
S105194600009B
S9030000FC
